:1000000000000420DD0300000904000009040000D2
:1000100009040000090400000904000009040000AC
:10002000090400000904000009040000090400009C
:10003000090400000804000043DD000059F300003B
:10004000090400000904000009040000090400007C
:10005000090400000904000009040000090400006C
:100060000904000009040000C1F300006905000054
:10007000090400000904000009040000090400004C
:10008000090400000904000029F40000090400002C
:10009000090400000904000009040000090400002C
:1000A000090400000904000009040000090400001C
:1000B000090400000904000049EB000009040000E5
:1000C00009040000090400000904000009040000FC
:1000D00009040000090400000904000009040000EC
:1000E00009040000090400000904000009040000DC
:1000F00009040000090400000904000009040000CC
:1001000009040000090400000904000010B5054CB2
:10011000237833B9044B13B10448AFF300800123B3
:10012000237010BDB80200200000000044720100DE
:1001300008B5034B1BB103490348AFF3008008BD6A
:1001400000000000BC02002044720100154B002B8F
:1001500008BF134B9D46A3F5803A00218B460F46FE
:100160001348144A121A12F0EAFA0F4B002B00D06F
:1001700098470E4B002B00D0984700200021040028
:100180000D000D48002802D00C48AFF3008012F09B
:1001900077FA200029000FF07DF912F05DFA00BF18
:1001A0000000080000000420000000000000000023
:1001B000B8020020D4B800200000000000000000B9
:1001C00080B582B000AF0121104804F0C9FE0121C2
:1001D0000F4804F0C5FE00237B600FE00D4A7B68EA
:1001E00012F833000B4A7B68DB0013445968002384
:1001F000042207F0C3F97B6801337B607B68012B25
:10020000ECDD002318460837BD4680BD404105009F
:1002100000350A005C37010080B582B000AF00F005
:10022000F5F878600A4B1B68094A43F08073136045
:10023000084B00221A60084B1B68074A43F0010371
:100240001360786804F032FA00BF0837BD4680BDFD
:10025000FCED00E0041000E0001000E080B483B08A
:1002600000AF054B1B687B607B6818460C37BD46AA
:100270005DF8047B704700BF041000E0B0B586B0A5
:1002800000AF786000F0C2F803464FF00004C7E901
:1002900004347B681C464FF00005D7E904010B4A83
:1002A0004FF0000312F058F802460B46204629464C
:1002B00012F052F803460C46C7E90234D7E902347B
:1002C000184621461837BD46B0BD00BF40420F005A
:1002D00080B400AF044BDB6C1B0EDBB21846BD468E
:1002E0005DF8047B704700BFB081E00F80B582B03D
:1002F00000AF194B01225A64FFF7EAFF0346FB7176
:10030000FB79002B0CD1154B4AF6E8521A60144BBE
:100310001B68134A43F004031360104B00221A6059
:10032000FB79012B05D80F4B1B680E4A43F4005391
:1003300013600D4B1B6A23F444130B4A43F48813D8
:1003400013620A4B1B68094A43F4F843136000BF69
:100350000837BD4680BD00BF00000E4090310E4002
:1003600098310E4064310E4000400E40A4310E40E2
:1003700080B584B000AF1123FB60FFF7B7FF1048D2
:1003800006F0BCFB0521F86805F0D0FA01210D4804
:1003900004F0E6FD0123FB720323BB720A4B7B6072
:1003A000BB7A1946786805F0C1FAFB7A0022012170
:1003B000184605F0EDFC00BF1037BD4680BD00BFFC
:1003C0006C37010030253E000500240080B400AFEA
:1003D00000BFBD465DF8047B7047000006488047BB
:1003E0000649074A074B9A42BEBF51F8040B42F830
:1003F000040BF8E7FFF7AAFE0105000050720100A8
:1004000000000020B4020020FEE700BF80B582B0EB
:1004100000AF00F025F878600A4BD3F808311B0ACA
:10042000C3F308033B603B6801337A68B2FBF3F324
:100430007B60054A7B6813607B6818460837BD46B9
:1004400080BD00BF00400E400800002080B400AF17
:10045000024B1846BD465DF8047B7047005A6202A5
:1004600080B483B000AF1C4BD3F8943003F0070383
:10047000023B032B1BD801A252F823F09D0400007D
:10048000950400008D040000A5040000134B1B68B8
:100490007B6010E04FF400437B600CE0104B1B6866
:1004A0007B6008E00F4B1B685B087B6003E00D4B33
:1004B0001B687B6000BF084BD3F800311B0A03F0B8
:1004C0001F0301337A68B2FBF3F318460C37BD46BD
:1004D0005DF8047B704700BF00400E400400002020
:1004E000000000200C00002080B400AF034B1B680C
:1004F0001846BD465DF8047B704700BF0000002031
:1005000080B400AF074B084A9A60064BD3F8883096
:10051000044A43F47003C2F8883000BFBD465DF85A
:10052000047B704700ED00E00000000080B400AFE5
:100530004FF400431846BD465DF8047B704780B415
:1005400000AF4FF47A731846BD465DF8047B7047E0
:1005500080B400AF034B1B681846BD465DF8047BB2
:10056000704700BF0400002080B483B000AF174B79
:1005700002225A60164B02225A60144B01225A6121
:10058000134B5B6A7B60134B1B78DBB21946124A34
:100590007B6842F821300F4B1B78DBB21A460F4BB9
:1005A00053F822307A689A4207D90A4B1B78DBB29B
:1005B00019460A4A7B6842F82130094B01221A7019
:1005C00000BF0C37BD465DF8047B704700800140DA
:1005D00000840140D4020020D8020020E80200205C
:1005E000D502002080B485B000AF0346FB71FB79D3
:1005F0000D4A52F82330FB60FB790B4A52F8233046
:100600009B08FA68D31AFB60FB79084A52F823303A
:10061000FA689A4201D9012300E0002318461437F2
:10062000BD465DF8047B7047E8020020D802002038
:1006300080B58AB000AF0346FB71FB7919464FF0D5
:10064000804004F0FBF8184B00225A62174B00223E
:100650001A70154B01225A6007F10C031A4600214B
:1006600064200CF097FD104B5B6A7B62104B1B788B
:10067000DBB219460F4A7B6A42F821300C4B1B78DB
:10068000DBB21A460C4B53F822307A6A9A4207D9E9
:10069000074B1B78DBB21946074A7B6A42F82130C8
:1006A00000BF2837BD4680BD00840140D502002030
:1006B000D4020020D8020020E802002080B500AF5C
:1006C0004FF0804004F0FCF80F4B00221A700FE04E
:1006D0000D4B1B78DBB21A460C4B9B5C1846FFF7A0
:1006E000A7FF094B1B78DBB20133DAB2064B1A7055
:1006F000054B1B78DBB2032BEAD94FF0804004F0A6
:10070000BFF800BF80BD00BFD40200207C370100CD
:10071000B0B586B000AF184B3C461D460FCD0FC498
:1007200095E8030084E803000121144804F018FC54
:100730000121134804F014FC0121124804F010FCBC
:1007400001214FF48A4004F00BFC0F4B0F4A1A6052
:100750000D4B4FF6FF72DA610B4B0D4A1A670D4BCA
:100760000D4A1A653B4619464FF0804004F008F8E0
:1007700000BF1837BD46B0BD8037010040410500BD
:100780000012040000A20400008401400000010ADD
:100790000100002A00600E400003100080B582B006
:1007A00000AF114B7B60114B1B7883F00103DBB270
:1007B000002B13D00D4B01221A700BE07B681B68D5
:1007C000984738603B68002B01D03B6807E07B68A6
:1007D00004337B607B681B68002BEFD10023184635
:1007E0000837BD4680BD00BF100000202403002054
:1007F00080B584B000AF78603960114B1B7883F00E
:100800000103DBB2002B02D00E4BFB6012E07B68D1
:10081000002B0DDC7B682C2202FB03F30A4A1344F5
:100820002C221946386811F07FFF0023FB6001E09D
:10083000064BFB60FB6818461037BD4680BD00BF05
:100840002403002005001180F8020020020011801E
:1008500080B584B000AF7860134B1B7883F0010340
:10086000DBB2002B02D0114BFB6017E0104B1B6872
:10087000002B11DC0E4B1B685A1C0D490A602C2200
:1008800002FB03F30B4A13442C227968184611F03B
:100890004BFF0023FB6001E0074BFB60FB68184641
:1008A0001037BD4680BD00BF240300200500118025
:1008B00028030020F80200200100118080B58CB0D0
:1008C00000AF00F00FFB00F0A1FA00F025FB0023C1
:1008D00000220821022000F02FFB00230022062125
:1008E000022000F029FB002300220E21032000F04B
:1008F00023FB002300220F21032000F01DFB002317
:1009000000220D21032000F017FB80220D2103207F
:1009100000F056FBF862FB6A002B01D0FB6A27E06F
:10092000154B3B6001233B7400237B7480237B6069
:100930008023FB607B68BB60104B7B61104BBB610D
:10094000104BFB61104B3B62104B7B62104BBB6248
:100950003B461846FFF77CFFF862FB6A002B06D186
:100960003B460121184600F024F800F039F8FB6AF4
:1009700018463037BD4680BD98370100B3090000E6
:10098000290A0000A50A0000150B0000C10A00009A
:100990009509000080B584B000AF78600023FB604B
:1009A00000F0A0FA00F032FAFB6818461037BD4696
:1009B00080BD80B582B000AF78600B46FB70FB78DD
:1009C000002B04D00F21032000F0D6FA03E00F2102
:1009D000032000F0E3FA002318460837BD4680BD27
:1009E00080B582B000AF0E21032000F0C5FA0620CA
:1009F00000F084FA0B4B1B7843F00403DBB29BB28C
:100A0000FB80BB1D0221184600F032FA022000F0E4
:100A100075FA0E21032000F0C1FA002318460837AA
:100A2000BD4680BD2C03002080B487B000AFF860C5
:100A3000B9607A603B60BB68DA087B6802FB03F34D
:100A40007B61BB68802B01D0124B1CE0124B1A68F3
:100A50007B691344114A934204D93B6800221A600F
:100A60000F4B10E00C4B1A683B681A600A4B1A686F
:100A70007B6959087B6903F001030B445B00134455
:100A8000054A1360002318461C37BD465DF8047BF9
:100A9000704700BF02001180180000207004002081
:100AA0000100118080B483B000AF78603960034BDF
:100AB00018460C37BD465DF8047B70470400118072
:100AC00080B588B000AFF860B9607A603B60BB6801
:100AD000FB61FB681B7C012B02D10023FB7601E04C
:100AE000FF23FB7600237B610BE0FB7E102219467F
:100AF000F86911F024FEFB691033FB617B69013357
:100B00007B617A693B689A42EFD30023184620370D
:100B1000BD4680BD80B588B000AFF860B9607A602E
:100B20003B60BB68BB61BB6A0133BB620E21032023
:100B300000F022FA062000F0E1F9BB6A9BB21B022A
:100B40009BB243F001039BB2FB8207F11603022123
:100B5000184600F08DF90023FB6126E01021B869EA
:100B600000F086F9BB691033BB61FB6A013BFA698F
:100B70009A4203D14FF6FF73FB820DE0BB6A9AB233
:100B8000FB699BB213449BB201339BB21B029BB225
:100B900043F0FF039BB2FB8207F1160302211846C4
:100BA00000F066F9FB690133FB61FA69FB6A9A425E
:100BB000D4D3022000F0A2F90E21032000F0EEF9B8
:100BC000002318462037BD4680BD80B485B000AFF5
:100BD000786039607B6803F1C063FB60FB683A684A
:100BE0001A6000BF1437BD465DF8047B704780B4BF
:100BF00085B000AF786039607B6803F18063FB608B
:100C0000FB683A681A6000BF1437BD465DF8047B84
:100C10007047000080B582B000AF03463960FB71B9
:100C2000FB79002B38D0FB79012B32D0FB79022BDA
:100C30002CD0FB79032B26D0FB79042B21D0FB7918
:100C4000052B1BD0FB79062B16D0FB79072B11D077
:100C5000FB79082B0CD0FB79092B06D0FB790A2BEA
:100C600001D107231AE0002318E04FF4404315E0B8
:100C70000F2313E0002311E000230FE04FF6FF7372
:100C80000CE000230AE04FF47F4307E040F6FF73D7
:100C900004E04FF6C07301E040F2FF333A681341BD
:100CA00003F00103002B04D14FF477710C4803F0DB
:100CB00027FEFA7913465B0013441B010C3303F142
:100CC000804303F5204301213A6801FA02F21146FC
:100CD0001846FFF78CFF00BF0837BD4680BD00BF38
:100CE000B037010080B582B000AF03463960FB71B8
:100CF000FB79002B38D0FB79012B32D0FB79022B0A
:100D00002CD0FB79032B26D0FB79042B21D0FB7947
:100D1000052B1BD0FB79062B16D0FB79072B11D0A6
:100D2000FB79082B0CD0FB79092B06D0FB790A2B19
:100D300001D107231AE0002318E04FF4404315E0E7
:100D40000F2313E0002311E000230FE04FF6FF73A1
:100D50000CE000230AE04FF47F4307E040F6FF7306
:100D600004E04FF6C07301E040F2FF333A681341EC
:100D700003F00103002B04D140F20B410C4803F0B7
:100D8000BFFDFA7913465B0013441B010C3303F1DA
:100D9000804303F5204301213A6801FA02F211462B
:100DA0001846FFF712FF00BF0837BD4680BD00BFE1
:100DB000B037010080B582B000AF786039607B68E1
:100DC000022B04D94FF4D571074803F099FD074A67
:100DD0007B6804331B01134404333A681A6000BF74
:100DE0000837BD4680BD00BF143801000020044014
:100DF00080B582B000AF7860396039687868FFF7F5
:100E0000D9FF00BF0837BD4680BD0000B0B588B02F
:100E100000AF0023FB61124B3C1D1D460FCD0FC4DC
:100E200095E8030084E8030001210E4804F098F8D7
:100E30000D4BFB603B1D19460C4806F0B1FD0B4BFA
:100E40000A225A67094B9B6F23F01F23074A43F07E
:100E50000B239367FB6918462037BD46B0BD00BF22
:100E60007838010000520400E0C81000000401407E
:100E700080B584B000AF786039600023FB6020E06B
:100E80003B68012B04D07B6803F00103002B0CD0DE
:100E90007B681B781946124806F078FE3B68013BD8
:100EA0003B607B6801337B600BE07B681B881946E5
:100EB0000B4806F081FE3B68023B3B607B680233D7
:100EC0007B603B68002BDBD100BF054B1B6903F047
:100ED0002003002BF9D0FB6818461037BD4680BDB3
:100EE0000004014080B582B000AF00237B6000F0B9
:100EF000F1FD7B6818460837BD4680BD80B584B0DB
:100F000000AF78600023FB60786800F0A9FEFB6802
:100F100018461037BD4680BD80B582B000AF0023B3
:100F20007B600121034804F01BF87B6818460837F2
:100F3000BD4680BD00350A0080B586B000AFF860C0
:100F4000B9603B601346FB7100237B61FB79002B8A
:100F50000BD10423FB7400BFFB68D8B2FA7C3B685A
:100F6000B96806F00BFB7B6900E0024B18461837A6
:100F7000BD4680BD0100138080B584B000AF7860AD
:100F800039600023FB607B68DBB239681846FFF7E5
:100F9000A9FEFB6818461037BD4680BD80B584B0F9
:100FA00000AF786039600023FB607B68DBB2396892
:100FB0001846FFF72FFEFB6818461037BD4680BD68
:100FC00080B588B000AFF860B9607A600023FB613B
:100FD0004FF43063BB6102237B6101214FF48A40EF
:100FE00003F0BEFF7A69B969042006F08DFB0E4B51
:100FF0005B6923F007030C4A43F0040353610A4B77
:101000009B68094A43F010039360FB68D8B2002341
:101010000422B96806F0B2FA786800F019F8FB69A2
:1010200018462037BD4680BD00600E4080B582B0B6
:1010300000AF78600121054803F092FF0321786832
:1010400004F074FC00BF0837BD4680BD30253E006B
:1010500080B588B000AF7860214A07F1140307CA51
:1010600003C31A7000233B761E48FFF7DFFF012100
:101070001D4803F075FF00233B7500237B7501239A
:10108000FB7507F11403184606F0F4FB174A07F145
:101090000C0392E8030018600433198002330A0C31
:1010A0001A7001237B7307F10C031946012006F027
:1010B00091FB0D4803F0C0FF02467B68B2FBF3F3DF
:1010C000013B19460120FFF793FE094B00229A606D
:1010D000012006F0BDFB00BF2037BD4680BD00BF2C
:1010E0009038010005002400A00914009C3801007C
:1010F0000020044080B483B000AF7860002318461D
:101100000C37BD465DF8047B704780B483B000AFF8
:101110007860FEE780B483B000AF786039603B68E8
:101120004FF400525A60002318460C37BD465DF854
:10113000047B704780B483B000AF78600123184609
:101140000C37BD465DF8047B704780B485B000AFB6
:10115000F860B9607A60002318461437BD465DF820
:10116000047B704780B586B000AFF860B9607A60E4
:1011700000237B610FE000F08BF838613B69B3F12D
:10118000FF3F0ED0BB685A1CBA603A69D2B21A70DF
:101190007B6901337B617B685A1E7A60002BEAD140
:1011A00000E000BF7B69002B02DC4FF0FF3300E062
:1011B0007B6918461837BD4680BD000080B485B0F5
:1011C00000AF78600B4B1B68002B02D1094B0A4A19
:1011D0001A60084B1B68FB60064B1A687B68134457
:1011E000044A1360FB6818461437BD465DF8047B5B
:1011F000704700BF70040020D8B8002080B586B0CA
:1012000000AFF860B9607A6000237B6109E0BB68D9
:101210005A1CBA601B78184600F044F87B69013309
:101220007B617A697B689A42F1DB7B6818461837E4
:10123000BD4680BD80B58EB000AF07F108031946EA
:101240000020FFF7D5FA78637B6B002B16D10023C3
:101250003B6000233B7101237B713B460A491846E2
:1012600000F03AF878637B6B002B07D1074B1B68C3
:10127000986800230222002111F03AFB7B6B18468C
:101280003837BD4680BD00BF74040020DC0000205C
:1012900080B400AF4FF0FF331846BD465DF8047BC5
:1012A0007047000080B582B000AF0346FB71094B68
:1012B0001B68002B08D0074B1B68FA7911461846AB
:1012C00000F0F0F8FB7901E04FF0FF3318460837E3
:1012D000BD4680BD7404002090B587B000AF786033
:1012E000396000237B6100233B6117E0684A3B695A
:1012F000582101FB03F3134455331B7883F001039A
:10130000DBB2002B07D03B69582202FB03F3604A93
:1013100013447B6105E03B6901333B613B69002B72
:10132000E4DD7B69002B01D15A4BADE07B681A6884
:101330007B69043319461046FFF75AFAB860BB6858
:10134000002B01D0BB689FE07B695B7D002B1FD128
:101350007B69DC697B69181D7B6999687B693C3313
:101360001422A047B860BB68002B01D0BB688BE09B
:101370007B699C6A7B69181D7B69D96B7B699A685C
:101380001423A047B860BB68002B04D0BB687BE087
:101390007B690022DA63404A3B691B0113441A68E7
:1013A0007B691B693D49A1FB03131B099A4201D9C3
:1013B0003B4B69E0384A3B691B01134404331A680C
:1013C0007B699B681B099A4201D9354B5CE0324A24
:1013D0003B691B0113441A687B695A632E4A3B69B7
:1013E0001B01134404331A687B691A632A4A3B6958
:1013F0001B01134408331A687B691A64264A3B6947
:101400001B0113440C331A687B695A647B681A68A1
:101410007B691A607B681A797B6983F838207B685E
:101420005A797B6983F839200023FB6010E07B69DF
:10143000196C7B691B6BFA6802FB03F27B69586CC1
:10144000FB689B0003440A441A60FB680133FB609D
:101450007B695B6BFA689A42E9D37B69002283F867
:1014600048207B69002283F849207B69002283F8A9
:101470004A20786900F088F87B69012283F85520BA
:101480003B687A691A60002318461C37BD4690BD38
:1014900078040020050012801C000020CDCCCCCCAC
:1014A0000200128080B584B000AF78600B46FB70FC
:1014B0007B68FB60FB6893F8553083F00103DBB277
:1014C000002B01D02F4B58E0FB685B7D002B04D133
:1014D000FB68012283F8542003E0FB68022283F8B2
:1014E0005420FB6893F83830002B0FD0FB68DB6C7E
:1014F000002B17D1FB681A6DFB685B6B013B9A42AE
:1015000010D1FB68002283F854200BE0FB68DB6CF1
:10151000002B07D1FB681B6D002B03D1FB68002259
:1015200083F85420FB780C2B0BD1F86800F02CF8D2
:10153000FB68002283F85420F86800F007FA03469D
:101540001BE0FB6893F83930002B06D0FB780A2BA0
:1015500003D10D21F86800F07BF8FB781946F86894
:1015600000F076F8FB6893F85430032B04D0F86849
:1015700000F0ECF9034600E0002318461037BD46A2
:1015800080BD00BF0600128080B582B000AF7860D9
:101590007B685B6C002B15D07B68186C7B685B6B81
:1015A0007A68126B02FB03F31A460B2111F0C7F89D
:1015B0007B680022DA647B6800221A657B6800225F
:1015C00083F8542000BF0837BD4680BD80B584B085
:1015D00000AF78600023FB6014E07B685A6CFB6806
:1015E0009B00134418687B685A6CFB6801339B00AE
:1015F000134419687B681B6B1A4611F095F8FB6859
:101600000133FB607B685B6B013BFA689A42E4D371
:101610007B685A6C7B685B6B03F18043013B9B00EA
:10162000134418687B681B6B1A46002111F087F879
:101630007B680022DA647B685B6B5A1E7B681A65E4
:101640007B68002283F8542000BF1037BD4680BD60
:1016500080B582B000AF786039603B680A2B08D053
:101660000D2B02D0082B24D038E07B680022DA64EE
:1016700085E07B681B6D5A1C7B681A657B680022BD
:10168000DA647B681A6D7B685B6B9A4276D37B6801
:1016900093F83830002B08D07868FFF797FF7B6805
:1016A0005B6B5A1E7B681A6568E07868FFF76CFF11
:1016B00064E07B681B7D002B10D07B681B7D012BB9
:1016C0000CD07B68FF2283F848207B68002283F8D7
:1016D00049207B68002283F84A2050E010F0F4FF94
:1016E00002463B68013313441B7803F09703002B39
:1016F00001D120233B603B682F2B02DD3B683B2B55
:1017000001DD3B233B607B68DA6C7B681B6B9A4294
:1017100007D37B680022DA647B681B6D5A1C7B68E8
:101720001A657B681A6D7B685B6B9A4210D37B6885
:1017300093F83830002B08D07868FFF747FF7B68B4
:101740005B6B5A1E7B681A6502E07868FFF71CFF26
:101750003B68DAB27B68596C7B681B6D9B000B445D
:1017600019687B68DB6C0B44303AD2B21A707B6824
:10177000DB6C5A1C7B68DA6400BF00E000BF0837EE
:10178000BD4680BDB0B58EB002AF786039607B6871
:10179000DB6B7B620023BB62B5E00023FB6232E0BF
:1017A0007B685A6C3B689B0013441A68FB6A1344BD
:1017B0001B78FB73F97BBA6A13465B0013449B00EA
:1017C0000B44604A32F81330BB817B681B7D002BD1
:1017D00004D0002B12DB022B10DC06E0FB6A5B005E
:1017E0007A6A1344BA891A800AE0FB6A5B007A6A53
:1017F0001344BA89D24392B21A8001E0524B9CE062
:10180000FB6A0133FB627B681B6BFA6A9A42C7D39F
:101810007B681B7D022B6CD17B6893F84830DB0919
:10182000DBB25AB27B6893F849309B115BB203F08C
:1018300002035BB213435AB27B6893F84A305B11E0
:101840005BB203F004035BB213435BB2FB757B6ACC
:101850003B617B689B68DB08013BFB6146E0002342
:101860003B620023BB611BE0FB693A6913441B78B0
:101870001A46BB6942FA03F303F00103002B01D1BE
:10188000FA7D00E00722B9690B465B000B4402FABF
:1018900003F31A463B6A13433B62BB690133BB61E6
:1018A000BB69072BE0DDFA6913465B0013441A4657
:1018B0003B6913443A6AD2B21A703B6A190AFA6950
:1018C00013465B00134401333A691344CAB21A70D9
:1018D0003B6A190CFA6913465B00134402333A69F8
:1018E0001344CAB21A70FB69013BFB61FB69002B10
:1018F000B5DA7B68DB681B095B007A6A13447B629C
:10190000BB6A0133BB62BB6A132B7FF646AF7B68B1
:101910005C6A7B68181D7B68D96B7B681B6B1D013B
:101920003A6813469B0013449B001A461423019304
:1019300000922B460022A047034618463037BD468A
:10194000B0BD00BFA43801000400128090B587B07C
:1019500002AF78607B6893F85430012B78D0022B6B
:1019600000F08480002B00D082E07B685B7D002B40
:101970006AD10023FB6006E0F9687868FFF702FF90
:10198000FB680133FB607B685B6BFA689A42F3D3B8
:101990007B685A6B13469B0013449B001A467B6876
:1019A0001B699A4252D27B681B7D012B0DD0022B02
:1019B00015D0002B20D17B68D86B7B689B68DB0837
:1019C0001A46002110F0BBFE18E07B68D86B7B68DC
:1019D0009B68DB081A46FF2110F0B1FE0EE07B6821
:1019E000D86B7B689A6813465B001344DB081A4681
:1019F000FF2110F0A4FE01E0204B3AE07B685A6B17
:101A000013469B0013449B00FB6017E07B685C6AF5
:101A10007B68181D7B68D96B7B689A6801230193EA
:101A2000FB68009313460022A047B860BB68002BF8
:101A300001D0BB681DE0FB680133FB607B681B695C
:101A4000FA689A42E2D301E00C4B12E000BF0FE0CB
:101A50007B685B7D002B07D17B681B6D194678681E
:101A6000FFF790FE034604E0044B02E0034B00E066
:101A7000002318461437BD4690BD00BF04001280F5
:101A800080B483B000AF0346FB7197F90730002B99
:101A90000CDBFB7903F01F02074997F907305B095C
:101AA000012000FA02F2603341F8232000BF0C3716
:101AB000BD465DF8047B704700E100E080B400AFF4
:101AC000034B9B681846BD465DF8047B704700BF1A
:101AD0000020044080B58AB000AF002387F827308B
:101AE000002387F82630002387F82530002387F865
:101AF0002430002387F82330534A3B4607CA03C3E8
:101B00001A700023FB610023BB61504BD3F8B03047
:101B100003F00403002B06D101214D4803F020FA05
:101B2000012387F827304B4803F01CFE0346FB7562
:101B3000FB7D032B02D0012387F82530434BD3F8DC
:101B4000903003F04003002B02D1012387F82430AA
:101B50000321404803F0EAFE3F4803F0E5F938610D
:101B60003A4BD3F8F03003F00103002B06D10121EA
:101B7000394803F0F5F9012387F8263004F078FBA3
:101B8000F860364B1B6803F00103002B15D0334B74
:101B90001B68FB61314B5B6ABB61304B00221A60F2
:101BA0002E4B00225A622D4B40F2FF721A621E2009
:101BB000FFF766FF012387F823300023BB70002363
:101BC000FB7008233B713B46184605F053FE00F0BE
:101BD00065F8F86804F05CFB97F82330002B0AD016
:101BE00039691D4803F0ADF91C4AFB6913601B4AB3
:101BF000BB69536202E0002005F02AFE97F8263008
:101C0000002B03D00021144803F0AAF997F82530DF
:101C1000002B04D0FB7D19460E4803F087FE97F891
:101C20002430002B04D000220021012004F0B0F861
:101C300097F82730002B03D00021054803F090F9D6
:101C400000BF2837BD4680BD843A010000400E40E9
:101C500030253E0005002400A009140000200440A7
:101C600080B483B000AF78607B680B49002B0CD048
:101C7000013B88221202003253430A68D80AD20A72
:101C80005043800901D00138FDD800BF0C37BD4654
:101C90005DF8047B704700BF2C00002080B584B045
:101CA00000AF0823BB60334B4FF480521A601AE038
:101CB00000F062F8786000BF00F05EF802467B68D2
:101CC0009342F9D000F058F878602A4B1B68184608
:101CD00000F059F800F050F802467B68D31A7B6098
:101CE0007B68002B07D1234B1B685B00214A1360E4
:101CF000002BDDD100E000BF1E4B1B685B081D4AB6
:101D000013601C4B1B68FB6024E01A4B1A68FB68CD
:101D10001343184A136000F02FF8786000BF00F0FA
:101D20002BF802467B689342F9D000F025F87860E2
:101D3000104B1B68184600F026F800F01DF802460C
:101D40007B68934206D0FB68DA430A4B1B6813405A
:101D5000084A1360BB685A1EBA60002B05D0FB68A6
:101D60005B08FB60FB68002BCFD100BF1037BD467E
:101D700080BD00BF2C00002080B500AFFFF79EFEA5
:101D80000346184680BD80B483B000AF78607B689E
:101D9000013BFDD800BF0C37BD465DF8047B7047A2
:101DA00080B582B000AF1F4B7B607B6802221A6156
:101DB0007B6802225A617B681B4A9A617B681B4AD6
:101DC000DA617B684FF480621A627B6800229A6253
:101DD0007B6800225A627B680022DA627B68124AC2
:101DE0009A647B68124ADA647B6810221A657B6801
:101DF00000229A657B6800225A657B680022DA65BA
:101E00007B6807330B49184610F020FE7B680A49AF
:101E1000184610F01BFE7B6820229A7100BF08371D
:101E2000BD4680BDB0910020903A0100D004002052
:101E3000D00800209C3A0100A03A010080B58AB089
:101E400000AFF860B9607A603C4B1B78002B01D181
:101E5000FFF7A6FFFA6813465B001344DB00483324
:101E6000364A1344BB61BB68FB61BB691B693B62BB
:101E7000BB69DB687B6100237B623A6A7B699A42BB
:101E80002AD9BB699A683B6AD31A3B613A697B6875
:101E9000934228BF13463B61BB695A683B6A1344AF
:101EA0003A691946F86910F03FFC7A6A3B691344B5
:101EB0007B62FA693B691344FB617A683B69D31A18
:101EC0007B603A6A3B6913443B62BB699B683A6A30
:101ED0009A4201D100233B627A693B6AD31A3B6183
:101EE0003A697B68934228BF13463B613B69002BEC
:101EF00018D0BB695A683B6A13443A691946F869B5
:101F000010F012FC7A6A3B6913447B62FA693B6900
:101F10001344FB617A683B69D31A7B603A6A3B6978
:101F200013443B627B6A002B02D0BB693A6A1A6198
:101F30007B6A18462837BD4680BD00BFB09100209F
:101F400080B586B000AFF860B9607A603B602E4B18
:101F50001B78002B01D1FFF723FF2B4B1B691A467F
:101F6000FB68934248D204F065F93861FB68002BA6
:101F700032D02549FB685A1C13465B001344DB0032
:101F80000B44BA681A602049FB685A1C13465B0070
:101F90001344DB000B4404337A681A601A49FA6868
:101FA00013465B001344DB000B4420333A681A608D
:101FB0001549FA6813465B001344DB000B442833D1
:101FC00000221A601049FA6813465B001344DB00D4
:101FD0000B44243300221A600B49FA6813465B0055
:101FE0001344DB000B442C333A6A1A60386904F05E
:101FF00031F900237B6102E04FF0FF337B617B69A5
:1020000018461837BD4680BDB091002080B586B017
:1020100000AFF860B9607A603B602E4B1B78002BF4
:1020200001D1FFF7BDFE2B4B5B691A46FB6893425B
:1020300047D204F0FFF83861FB68002B31D0254906
:10204000FA6813465B001344DB000B444833BA685C
:102050001A602049FA6813465B001344DB000B4406
:102060004C337A681A601B49FA6813465B001344C4
:10207000DB000B4450333A681A601649FA6813467D
:102080005B001344DB000B44583300221A601149F3
:10209000FA6813465B001344DB000B445433002200
:1020A0001A600C49FA6813465B001344DB000B44CA
:1020B0005C333A6A1A60386904F0CCF800237B611B
:1020C00002E04FF0FF337B617B6918461837BD464D
:1020D00080BD00BFB0910020F0B400EB4003DFF8FA
:1020E000800000EBC30000F118063069F7687568DE
:1020F00087422ED3B368DC1B631E934212D37D1933
:10210000D01900BF11F8013B05F8013B013A05D099
:1021100011F8013B05F8013B013AF3D1F0600120D1
:10212000F0BC7047C018904217D37819121B11F8F1
:10213000013B00F8013B013CF9D1141C05D011F81A
:10214000013B05F8013B013AF9D1F4600120F0BCF4
:102150007047C01B01389042D1D20020F0BC7047BC
:10216000B091002080B487B000AFF860B9607A60A9
:1021700000233B6102E03B6901333B61BA683B6984
:1021800013441B78002BF6D13A697B689A4201D937
:102190007B683B613B69FE2B06D8FB685A1CFA60E2
:1021A0003A69D2B21A7011E0FB685A1CFA60FF2239
:1021B0001A70FB685A1CFA603A69D2B21A703B690D
:1021C000190AFB685A1CFA60CAB21A7000237B61B4
:1021D0000AE0BA68531CBB60FB68591CF9601278AE
:1021E0001A707B6901337B617A693B699A42F0D34B
:1021F000FB6818461C37BD465DF8047B704780B409
:1022000083B000AF78607B68043318460C37BD4656
:102210005DF8047B704780B582B000AFFB1C0122E3
:1022200019460120FFF70AFE03467B607B68002BFE
:1022300044DDFB78042B1AD0042B06DC022B10D0D3
:10224000022B11DC012B09D02DE0062B15D0062B1B
:1022500010DB072B14D0802B15D024E000F07CFA83
:1022600031E000F02DFB2EE000F0F8FC2BE000F058
:10227000C1FC28E000F046FB25E000F043FF22E02F
:1022800000F022FF1FE0FB1C012219460120FFF78E
:10229000D5FD03467B607B68002B11DDFB7818467B
:1022A00000F096FE0CE0FB785BB2002B0ADAFB1C18
:1022B000012219460120FFF7C1FD03E000BF02E043
:1022C00000BF00E000BF00BF0837BD4680BD000072
:1022D00080B58CB000AF01233B713B1D0133FB6126
:1022E000FB69FB62334B5B69BB620BE0BB6ADAB232
:1022F000FB6A591CF96262F07F02D2B21A70BB6AA3
:10230000DB09BB62BB6A7F2BF0D8FB6A5A1CFA62FE
:10231000BA6AD2B21A70FB6AFB61274B1B68BB61B9
:10232000244BDB68BA69D31A7B617B691B017B6133
:102330007B691B117B61FB697B627B693B620BE004
:102340003B6ADAB27B6A591C796262F07F02D2B2D0
:102350001A703B6ADB093B623B6A7F2BF0D87B6AD1
:102360005A1C7A623A6AD2B21A707B6AFB61FA69C5
:102370003B1DD31A1A463B1D19460120FFF7ACFE40
:1023800003463B613B69002B09D00A4ABB69D36015
:10239000084B1B78013BDAB2064B1A7004E0054B80
:1023A0005B690133034A53613B6918463037BD46C8
:1023B00080BD00BFE8480020041000E080B58AB06E
:1023C00000AFF860B9607A60654B1B78012B10D0C4
:1023D000634B1B78002B00F0A780614B1B78022B0E
:1023E00009D1FFF775FF5E4B1B78012B40F09E80F3
:1023F00001E000BF00E000BF7B681F2B09D8584BED
:10240000DA697B6822FA03F303F00103002B40F042
:102410008F807B68172B07D8FB68013BFB607B68CC
:10242000DAB2FB681A703DE0BA68FB68D31AFB6148
:10243000FB697F2B12D9FB69DA09FB68013BFB6062
:10244000D2B2FB681A70FB69DBB2FA68013AFA6033
:1024500063F07F03DAB2FB681A7006E0FB68013BA9
:10246000FB60FB69DAB2FB681A707B687F2B12D9BC
:102470007B68DA09FB68013BFB60D2B2FB681A702B
:102480007B68DBB2FA68013AFA6063F07F03DAB284
:10249000FB681A7006E0FB68013BFB607B68DAB200
:1024A000FB681A702F4B1B68BB612D4BDB68BA6948
:1024B000D31A7B617B691B017B617B691B097B6193
:1024C000BB687B627B693B620BE03B6ADAB27B6A8A
:1024D000591C796262F07F02D2B21A703B6ADB0942
:1024E0003B623B6A7F2BF0D87B6A5A1C7A623A6A5D
:1024F000D2B21A707B6ABB60BA68FB68D31A1A46FC
:10250000F9680120FFF7E8FD03463B613B69002BBA
:1025100003D0134ABB69D3600BE0114B1B78013326
:10252000DAB20F4B1A7004E000BF02E000BF00E017
:1025300000BF0D4BDA6E0C4B1B6F9A420BD0084B51
:102540009B78002B07D1064B01229A70FFF763FEA0
:10255000034B00229A7000BF2837BD4680BD00BFE4
:10256000E8480020041000E0B091002080B586B05B
:1025700002AFF860B9607A603B60002300934FF4CB
:102580008043144A14490120FFF7DAFC002300932A
:102590000823124A10490120FFF738FD104B4FF075
:1025A00080521A610F4B1B680D4AD3600C4A7B683E
:1025B00013620B4AFB685360094ABB689360084A80
:1025C0003B685362064B00221A7000BF1037BD46AD
:1025D00080BD00BFE0080020B43A0100E0480020C0
:1025E000E8480020041000E080B483B000AF7860B9
:1025F000044A7B68136100BF0C37BD465DF8047B5D
:10260000704700BFE848002080B584B000AF786014
:1026100003F010FEF8600848FFF7F1FDB8607A6833
:10262000B968B868FFF7CAFEF86803F013FE00BF88
:102630001037BD4680BD00BF1849002080B588B066
:1026400000AF7860396003F0F5FD78611648FFF758
:10265000D6FD38613B69FB60FB68FB613B68BB6191
:102660000BE0BB69DAB2FB69591CF96162F07F02C9
:10267000D2B21A70BB69DB09BB61BB697F2BF0D892
:10268000FB695A1CFA61BA69D2B21A70FB69FB6025
:102690007A68F9683869FFF791FE786903F0DAFD26
:1026A00000BF2037BD4680BD1849002080B58CB0E2
:1026B00000AFF860B9607A6003F0BCFDF8612548AE
:1026C000FFF79DFDB861BB697B617B69FB62BB68FD
:1026D000BB620BE0BB6ADAB2FB6A591CF96262F0BA
:1026E0007F02D2B21A70BB6ADB09BB62BB6A7F2B66
:1026F000F0D8FB6A5A1CFA62BA6AD2B21A70FB6A44
:102700007B617B697B627B683B620BE03B6ADAB290
:102710007B6A591C796262F07F02D2B21A703B6AFE
:10272000DB093B623B6A7F2BF0D87B6A5A1C7A62DA
:102730003A6AD2B21A707B6A7B61FA687969B869C1
:10274000FFF73CFEF86903F085FD00BF3037BD465A
:1027500080BD00BF1849002080B58CB000AF554B3C
:102760001B78002B40F0A280524B01221A7003F01C
:1027700061FDF8600A2250490120FFF7ADFCF868BE
:1027800003F068FD0A20FFF73FFF03F053FDB86038
:102790004A48FFF734FD78607B683B603B68FB622A
:1027A000444B5B68BB620BE0BB6ADAB2FB6A591C44
:1027B000F96262F07F02D2B21A70BB6ADB09BB62B7
:1027C000BB6A7F2BF0D8FB6A5A1CFA62BA6AD2B293
:1027D0001A70FB6A3B603B687B62364B9B683B62CE
:1027E0000BE03B6ADAB27B6A591C796262F07F02C5
:1027F000D2B21A703B6ADB093B623B6A7F2BF0D88E
:102800007B6A5A1C7A623A6AD2B21A707B6A3B605F
:102810003B68FB61274B1B69BB610BE0BB69DAB20C
:10282000FB69591CF96162F07F02D2B21A70BB6970
:10283000DB09BB61BB697F2BF0D8FB695A1CFA61CD
:10284000BA69D2B21A70FB693B603B687B610223B4
:102850003B610BE03B69DAB27B69591C796162F03C
:102860007F02D2B21A703B69DB093B613B697F2B67
:10287000F0D87B695A1C7A613A69D2B21A707B69C6
:102880003B60182239687868FFF798FDB86803F054
:10289000E1FC084B5B6A002B02D0064B5B6A984751
:1028A00000F0DCF900F0A6F900F02CFC00BF303796
:1028B000BD4680BDE8480020A83A01001849002024
:1028C00080B582B000AF03F0B5FC78600B48FFF72D
:1028D00096FC38600A4B1B78002B07D00B22396816
:1028E0003868FFF76BFD064B00221A70786803F01A
:1028F000B1FC00BF0837BD4680BD00BF18490020AD
:10290000E848002080B58CB000AF03F093FCF8607D
:102910004548FFF774FCB860BB687B607B68FB626E
:10292000424B5B68BB620BE0BB6ADAB2FB6A591CC4
:10293000F96262F07F02D2B21A70BB6ADB09BB6235
:10294000BB6A7F2BF0D8FB6A5A1CFA62BA6AD2B211
:102950001A70FB6A7B607B687B62344B9B683B62CE
:102960000BE03B6ADAB27B6A591C796262F07F0243
:10297000D2B21A703B6ADB093B623B6A7F2BF0D80C
:102980007B6A5A1C7A623A6AD2B21A707B6A7B609E
:102990007B68FB61254B1B69BB610BE0BB69DAB24D
:1029A000FB69591CF96162F07F02D2B21A70BB69EF
:1029B000DB09BB61BB697F2BF0D8FB695A1CFA614C
:1029C000BA69D2B21A70FB697B607B687B610223B3
:1029D0003B610BE03B69DAB27B69591C796162F0BB
:1029E0007F02D2B21A703B69DB093B613B697F2BE6
:1029F000F0D87B695A1C7A613A69D2B21A707B6945
:102A00007B6018227968B868FFF7D8FCF86803F093
:102A100021FC064B5B6A002B02D0044B5B6A984793
:102A200000BF3037BD4680BD18490020E84800206F
:102A300080B592B000AF786003F0FCFB78616B4822
:102A4000FFF7DDFB38613B69FB60FB687B647B68FB
:102A50001A68674B1B69D31A9B083B640BE03B6CFD
:102A6000DAB27B6C591C796462F07F02D2B21A70C0
:102A70003B6CDB093B643B6C7F2BF0D87B6C5A1CB6
:102A80007A643A6CD2B21A707B6CFB60FB68FB63B1
:102A90007B689B68BB630BE0BB6BDAB2FB6B591CBA
:102AA000F96362F07F02D2B21A70BB6BDB09BB63C1
:102AB000BB6B7F2BF0D8FB6B5A1CFA63BA6BD2B29C
:102AC0001A70FB6BFB607B685B6820221946F86814
:102AD000FFF748FBF8600922F9683869FFF76EFCD8
:102AE0003B69FB60FB687B637B681A68404B1B6932
:102AF000D31A9B083B630BE03B6BDAB27B6B591C30
:102B0000796362F07F02D2B21A703B6BDB093B63E0
:102B10003B6B7F2BF0D87B6B5A1C7A633A6BD2B23B
:102B20001A707B6BFB60FB68FB627B68DB68BB62D7
:102B30000BE0BB6ADAB2FB6A591CF96262F07F02F1
:102B4000D2B21A70BB6ADB09BB62BB6A7F2BF0D8BA
:102B5000FB6A5A1CFA62BA6AD2B21A70FB6AFB604C
:102B6000FB687B627B681B693B620BE03B6ADAB205
:102B70007B6A591C796262F07F02D2B21A703B6A9A
:102B8000DB093B623B6A7F2BF0D87B6A5A1C7A6276
:102B90003A6AD2B21A707B6AFB60FB68FB61002361
:102BA000BB610BE0BB69DAB2FB69591CF96162F0E9
:102BB0007F02D2B21A70BB69DB09BB61BB697F2B94
:102BC000F0D8FB695A1CFA61BA69D2B21A70FB6973
:102BD000FB601522F9683869FFF7F0FB786903F0AC
:102BE00039FB00BF4837BD4680BD00BF18490020F3
:102BF000E848002080B500AF074B1B6A002B08D0C7
:102C0000054B1B6A5B68002B03D0034B1B6A5B6898
:102C1000984700BF80BD00BFE848002080B586B05F
:102C200000AF786003F006FB78610B48FFF7E7FA26
:102C30003861802279683869FFF794FAF8600E22CB
:102C4000F9683869FFF7BAFB786903F003FB00BF46
:102C50001837BD4680BD00BF1849002090B583B02D
:102C600000AF144B1B6A002B19D0124B1B6A1B6858
:102C7000002B14D00F4B1B6A1B689847C7E9000153
:102C80003868D7E900124FF000034FF0000413003A
:102C900000241A4601460D20FFF708FD05E0064B0B
:102CA0001B6819460C20FFF7C9FC00BF0C37BD4656
:102CB00090BD00BFE8480020041000E080B582B05D
:102CC00000AF03F0B7FA78600748FFF798FA38606A
:102CD000112239683868FFF771FB786803F0BAFA97
:102CE00000BF0837BD4680BD1849002080B588B0B8
:102CF00000AF786003F09EFA78611A48FFF77FFA18
:102D000038613B69FB60184B1B697A68D31A9B08D2
:102D10007B60FB68FB617B68BB610BE0BB69DAB27F
:102D2000FB69591CF96162F07F02D2B21A70BB696B
:102D3000DB09BB61BB697F2BF0D8FB695A1CFA61C8
:102D4000BA69D2B21A70FB69FB600822F968386967
:102D5000FFF734FB786903F07DFA00BF2037BD46EA
:102D600080BD00BF18490020E848002080B588B029
:102D700000AF786003F05EFA78611A48FFF73FFA17
:102D800038613B69FB60184B1B697A68D31A9B0852
:102D90007B60FB68FB617B68BB610BE0BB69DAB2FF
:102DA000FB69591CF96162F07F02D2B21A70BB69EB
:102DB000DB09BB61BB697F2BF0D8FB695A1CFA6148
:102DC000BA69D2B21A70FB69FB600422F9683869EB
:102DD000FFF7F4FA786903F03DFA00BF2037BD46EB
:102DE00080BD00BF18490020E848002080B588B0A9
:102DF00000AF786003F01EFA78611A48FFF7FFF918
:102E000038613B69FB60184B1B697A68D31A9B08D1
:102E10007B60FB68FB617B68BB610BE0BB69DAB27E
:102E2000FB69591CF96162F07F02D2B21A70BB696A
:102E3000DB09BB61BB697F2BF0D8FB695A1CFA61C7
:102E4000BA69D2B21A70FB69FB600622F968386968
:102E5000FFF7B4FA786903F0FDF900BF2037BD46EB
:102E600080BD00BF18490020E848002080B58AB026
:102E700000AF7860396003F0DDF978612748FFF72B
:102E8000BEF938613B69FB60254B1B697A68D31A30
:102E90009B087B60FB687B627B683B620BE03B6A64
:102EA000DAB27B6A591C796262F07F02D2B21A7080
:102EB0003B6ADB093B623B6A7F2BF0D87B6A5A1C7A
:102EC0007A623A6AD2B21A707B6AFB60FB68FB6175
:102ED0003B68BB610BE0BB69DAB2FB69591CF96165
:102EE00062F07F02D2B21A70BB69DB09BB61BB69B9
:102EF0007F2BF0D8FB695A1CFA61BA69D2B21A70FA
:102F0000FB69FB600722F9683869FFF757FA7869AF
:102F100003F0A0F900BF2837BD4680BD1849002046
:102F2000E848002080B588B000AF7860396003F0D1
:102F300081F978611B48FFF762F938613B69FB60F2
:102F4000FB68FB61184B1B697A68D31A9B08BB614D
:102F50000BE0BB69DAB2FB69591CF96162F07F02D0
:102F6000D2B21A70BB69DB09BB61BB697F2BF0D899
:102F7000FB695A1CFA61BA69D2B21A70FB69FB602C
:102F800080223968F868FFF7EDF8F8601922F968CF
:102F90003869FFF713FA786903F05CF900BF20374E
:102FA000BD4680BD18490020E848002080B483B0A9
:102FB00000AF7860054B1B697A68D31A9B081846E6
:102FC0000C37BD465DF8047B704700BFE848002021
:102FD00080B58CB000AF0346FB71394B1B68002BEA
:102FE00069D0374B1B68FB620023BB6208E0FB6AB9
:102FF0001B69FB62FB6A002B07D0BB6A0133BB6213
:10300000FB79BA6A9A42F2D300E000BFFB6A002B58
:1030100051D003F00FF978612A48FFF7F0F83861D2
:103020003B69FB60FB687B62FB793B620BE03B6AC0
:10303000DAB27B6A591C796262F07F02D2B21A70EE
:103040003B6ADB093B623B6A7F2BF0D87B6A5A1CE8
:103050007A623A6AD2B21A707B6AFB60FB68FB61E3
:10306000FB6A9B68BB610BE0BB69DAB2FB69591C68
:10307000F96162F07F02D2B21A70BB69DB09BB61F1
:10308000BB697F2BF0D8FB695A1CFA61BA69D2B2CE
:103090001A70FB69FB60FB6A1B6880221946F8689E
:1030A000FFF760F8F8601622F9683869FFF786F9CB
:1030B000786903F0CFF800BF3037BD4680BD00BF50
:1030C000104900201849002080B582B000AF0C4B99
:1030D0001B68002B0FD00A4B1B687B607B68DB688A
:1030E000002B02D07B68DB6898477B681B697B609C
:1030F0007B68002BF2D100BF0837BD4680BD00BF02
:103100001049002080B586B000AF03F093F8F86056
:103110001748FFF774F8B860BB687B607B687B6119
:10312000144B1B783B610BE03B69DAB27B69591C9D
:10313000796162F07F02D2B21A703B69DB093B61B0
:103140003B697F2BF0D87B695A1C7A613A69D2B20D
:103150001A707B697B601B227968B868FFF72EF9CB
:10316000F86803F077F800BF1837BD4680BD00BF90
:10317000184900201449002080B58AB000AF78605B
:1031800003F058F878612748FFF739F83861802252
:1031900079683869FEF7E6FFF860FB687B62012317
:1031A0003B620BE03B6ADAB27B6A591C796262F0DF
:1031B0007F02D2B21A703B6ADB093B623B6A7F2B0B
:1031C000F0D87B6A5A1C7A623A6AD2B21A707B6A69
:1031D000FB60FB68FB610023BB610BE0BB69DAB2FB
:1031E000FB69591CF96162F07F02D2B21A70BB69A7
:1031F000DB09BB61BB697F2BF0D8FB695A1CFA6104
:10320000BA69D2B21A70FB69FB601A22F968386990
:10321000FFF7D4F8786903F01DF800BF2837BD46E2
:1032200080BD00BF1849002080B500AF0448FFF7FB
:10323000F5FC0448FFF7F2FC00F07CF900BF80BD0C
:10324000BC3A0100EC3A010098B500AF094801F022
:10325000E9F90446074801F0E5F90146064B074A3B
:103260002046FFF783F94FF00050FFF7BDF900BF8C
:1032700098BD00BF2892002029320000A43B010025
:10328000F0B585B002AF00237B6035E01F497A6856
:1032900013469B0013449B000B4418681B497A6833
:1032A00013469B0013449B000B4404331C681749CE
:1032B0007A6813469B0013449B000B4408331D6837
:1032C00012497A6813469B0013449B000B440C334D
:1032D0001B681E460D497A6813469B0013449B00E9
:1032E0000B4410331B68009333462A46214600F0F6
:1032F000B7F87B6801337B60054B1B687A689A429C
:10330000C4D300BF0C37BD46F0BD00BFFC49002050
:103310007C4C002090B585B000AF01F078F9F860E2
:10332000F868FCF7ABFFC7E90001D7E9003418469D
:1033300021461437BD4690BD80B582B000AF78609D
:1033400005F092F90346002B02D17868FFF74EFD95
:1033500000BF0837BD4680BD80B582B000AF786041
:1033600005F082F90346002B02D17868FFF7FEFCD6
:1033700000BF0837BD4680BD80B582B000AF786021
:1033800005F072F90346002B03D104217868FFF79A
:103390006DFD00BF0837BD4680BD000080B586B01A
:1033A00002AFF860B9607A603B6005F05DF90346F2
:1033B000002B4BD1274B1B681F2B03D92648FFF747
:1033C000DBFE43E0234B1A68244913469B00134459
:1033D0009B000B44FA681A601E4B1A681F4913467B
:1033E0009B0013449B000B440433BA681A60194BCA
:1033F0001A681A4913469B0013449B000B44083378
:103400007A681A60134B1A68144913469B001344D8
:103410009B000B440C333A681A600E4B1A680F4934
:1034200013469B0013449B000B441033BA691A6087
:10343000084B1B680133074A13603A68BB69009365
:1034400013467A68B968F86800F00AF81037BD4684
:1034500080BD00BF7C4C0020003B0100FC490020E7
:1034600080B58AB000AFF860B9607A603B6007F160
:1034700014031422002118460FF061F9FB687B61E8
:10348000BB68BB617B68FB613B683B623B6B7B62FB
:1034900007F114031846FFF7CBFA00BF2837BD46E3
:1034A00080BD000080B584B000AFF860B9607A607C
:1034B0007968B868FFF736FDB868FFF777FD03460F
:1034C0001946F868FFF7BAF8174B1B68FF2B03D9AA
:1034D0001648FFF751FE24E0134B1A6814491346AF
:1034E0005B0013449B000B44BA681A600E4B1A68C9
:1034F0000F4913465B0013449B000B4404337A6866
:103500001A60094B1A680A4913465B0013449B0072
:103510000B44083300221A60034B1B680133024A34
:1035200013601037BD4680BD80580020503B01001D
:10353000804C002080B582B000AF00237B602BE080
:103540001A497A6813465B0013449B000B44083306
:103550001B68002B1DD115497A6813465B00134484
:103560009B000B44186811497A6813465B001344AA
:103570009B000B4404331B681946FFF7D3FC0B492F
:103580007A6813465B0013449B000B440833012206
:103590001A607B6801337B60054B1B687A689A422E
:1035A000CED300BF0837BD4680BD00BF804C002091
:1035B0008058002080B483B000AF78607B68002220
:1035C0001A6000BF0C37BD465DF8047B70470000F1
:1035D00080B582B000AF7860144B01221A707B680E
:1035E000002B01D101F010F87B6800221A70104BFB
:1035F0001A687B685A600F4B1A687B689A607B6810
:103600000D4ADA607B68B7221A617B680B4A5A61FF
:1036100000F0F6F900F0ECF9786800F04BFF7B68F9
:103620001B78002B0837BD4680BD00BF84580020A2
:103630002C61010078630100AC3B0100D03B01002C
:1036400080B400AF034B1B681846BD465DF8047B91
:10365000704700BF8858002080B485B000AF034693
:103660000A46FB711346BB710023FB73FB79162BD3
:1036700063D801A252F823F0D5360000DB360000F3
:10368000E1360000E1360000E1360000E7360000D8
:10369000ED360000ED360000ED360000F336000098
:1036A000F9360000FF360000053700000B37000038
:1036B0000B3700000B3700001D37000023370000D8
:1036C000293700002F37000011370000173700009E
:1036D000353700000123FB7330E00123FB732DE03D
:1036E0000123FB732AE00123FB7327E00123FB7313
:1036F00024E00123FB7321E00123FB731EE001237F
:10370000FB731BE00123FB7318E00123FB7315E03F
:103710000123FB7312E00123FB730FE00123FB7312
:103720000CE00123FB7309E00123FB7306E0012396
:10373000FB7303E00123FB7300E000BFFB7B184633
:103740001437BD465DF8047B704700BF80B58EB06E
:1037500000AFF860B9607A600023FB627B68002BE1
:1037600001D100F051FF274B1B68002B08D178686E
:1037700000F04AF87B681B78002B01D0FB6A3DE023
:10378000204B1B687968184600F042FA38637B6862
:103790001B78002B01D0FB6A30E03B6B7A68F9683C
:1037A000184606F09DFD7B681B78002B17D1BB687F
:1037B000002B09D0BB681B7803F00103002B03D05A
:1037C000012387F8373002E0002387F837303B6B5E
:1037D00097F8372083F834203B6BFB620DE0094BF0
:1037E0001B68184607F114031A46396B00F006FBF4
:1037F0003B7D002B01D000F007FFFB6A18463837ED
:10380000BD4680BD8C58002080B588B004AF78607C
:103810007B68002B01D100F0F7FE7B6800221A7054
:103820005E4B1A687B685A605D4B1A687B689A60C9
:103830007B685C4ADA607B684FF40D621A617B68D2
:10384000594A5A61786804F039FD7B681B78002B6F
:1038500003D0786804F0BCFD9DE0544B1B68002B3E
:1038600040F09580FFF7ECFEF8607B68B422F968C1
:103870004F4800F053F902464C4B1A607B681B78A6
:10388000002B03D0786804F0A3FD84E0474B1B684D
:1038900019467B6803934FF0FF3302930023019393
:1038A000042300933823FA68424800F05FF97B68EC
:1038B0001B78002B03D0786804F08AFD6BE03B4B4B
:1038C0001B6803F124017B6803934FF0FF330293DD
:1038D00000230193042300932C23FA68364800F058
:1038E00045F97B681B78002B03D0786804F070FDE5
:1038F00051E02E4B1B6803F16C017B6803934FF082
:10390000FF33029300230193042300933823FA68C2
:103910002A4800F02BF97B681B78002B03D07868CD
:1039200004F056FD37E0214B1B6803F190017B68E2
:1039300003934FF0FF33029300230193042300937A
:103940000123FA681E4800F011F97B681B78002BF0
:1039500003D0786804F03CFD1DE0144B1B6803F1B4
:1039600048017B6803934FF0FF33029300230193D8
:10397000042300932423FA68124800F0F7F87B68C8
:103980001B78002B03D0786804F022FD03E07868F0
:1039900004F01EFD00BF1037BD4680BD2C61010044
:1039A00078630100DC3B01008C3C01008C58002056
:1039B000243C0100383C0100483C0100583C010017
:1039C000683C01007C3C010080B584B000AF7860A9
:1039D00002F04EFCF860054A7B681360F86802F05C
:1039E00057FC00BF1037BD4680BD00BF9058002077
:1039F00080B500AF0120FFF7E7FF00BF80BD0000EA
:103A000080B586B000AF3B461946064800F00CF87A
:103A10003B78002B01D000F0F7FD00BF1837BD4602
:103A200080BD00BF3000002080B584B000AF78605A
:103A300039603B68002B01D100F0E6FD7B68002B6C
:103A400015D13B680A221A702F4B9A6A3B685A605C
:103A50002E4B9A6A3B689A603B682D4ADA603B6855
:103A600040F2B9221A613B682A4A5A61FEE702F025
:103A7000FFFBB860284B1B68FB601FE0FA687B689F
:103A80009A4218D1B86802F003FC3B6815221A70FC
:103A90001D4B5A6D3B685A601C4B5A6D3B689A60CF
:103AA0003B681B4ADA603B684FF430721A613B682E
:103AB000184A5A6124E0FB68DB68FB60FB68002B56
:103AC000DCD1154B1A687B68DA60134A7B68136097
:103AD000B86802F0DDFB3B6800221A700A4B1A68D6
:103AE0003B685A60094B1A683B689A603B68084A11
:103AF000DA603B6840F2CB221A613B68054A5A61A2
:103B00001037BD4680BD00BF2C6101007863010005
:103B1000983C0100B83C01004092002080B58AB07A
:103B200004AFF860B9607A603B60BB687B613B685A
:103B3000002B01D100F068FD7B69002B01D10A4BFD
:103B40007B613B68029300230193012300930423CC
:103B50007A687969F86800F0F1F938613B691846CC
:103B60001837BD4680BD00BF3000002080B58AB048
:103B700004AFF860B9607A603B607B687B61FB6A88
:103B8000002B01D100F040FDBB68002B15D1FB6A72
:103B90000A221A70194B9A6AFB6A5A60184B9A6A81
:103BA000FB6A9A60FB6A174ADA60FB6A40F21442C9
:103BB0001A61FB6A144A5A61FEE77B69002B01D146
:103BC000124B7B61BB6800221A70BB680022DA616D
:103BD000BB6800221A62FB6A0393BB6A02937B6A8A
:103BE00001933B6A00933B687A69B968F86800F012
:103BF000B9FA00BF1837BD4680BD00BF2C61010077
:103C000078630100983C0100C43C010030000020B2
:103C100090B58BB004AF786039603B68002B01D160
:103C200000F0F2FC7B68002B15D13B680A221A7069
:103C30006E4B9A6A3B685A606D4B9A6A3B689A6011
:103C40003B686C4ADA603B6840F2D7421A613B68D5
:103C5000694A5A61FEE702F00BFB78617B685B6999
:103C6000B3F1FF3F1FD07B689A697B685B699A421A
:103C700019D3786902F00CFB3B6818221A705B4B71
:103C80001A6E3B685A605A4B1A6E3B689A603B68E2
:103C9000584ADA603B6840F2E2421A613B68564A91
:103CA0005A6100239DE07B689B695A1C7B689A617E
:103CB0007B681B69002B2DD07B681B69FB607B68D0
:103CC0001B7803F00203002B02D1FB681B6805E0A0
:103CD0007B689B68043BFA6813441B687A6813612D
:103CE000786902F0D5FA3B6800221A703F4B1A68D7
:103CF0003B685A603E4B1A683B689A603B683D4A95
:103D0000DA603B6840F2F1421A613B683A4A5A6114
:103D1000FB6866E0786902F0BBFA00233B617B68D0
:103D200059687B6898687B68DC687B681B7803F05F
:103D30000103002B03D07B685B681B6900E0012353
:103D40003A680292002201920093234602463869A3
:103D500000F0F4F8F8603B681B78002B0CD002F000
:103D600087FA78617B689B695A1E7B689A617869DB
:103D700002F08EFA002334E07B68DB69002B2FD041
:103D80007B68DC697B6859687B681B6AFA687868BD
:103D9000A0470346FB72FB7A012B21D002F068FAA0
:103DA00078617B689B695A1E7B689A61786902F02A
:103DB0006FFA3B681A221A700C4B9A6E3B685A6075
:103DC0000B4B9A6E3B689A603B680A4ADA603B6824
:103DD00040F21B521A613B68074A5A61002300E017
:103DE000FB6818461C37BD4690BD00BF2C61010022
:103DF00078630100983C0100D83C010080B586B092
:103E000000AFF860B9607A607B68002B01D100F0E8
:103E1000FBFBFB68002B15D17B680A221A70434B11
:103E20009A6A7B685A60424B9A6A7B689A607B68A0
:103E3000404ADA607B6840F23D521A617B683E4A34
:103E40005A61FEE7BB68002B15D17B680A221A7005
:103E5000364B9A6A7B685A60354B9A6A7B689A60DF
:103E60007B68344ADA607B6840F23E521A617B68B4
:103E7000314A5A61FEE702F0FBF97861FB689B6901
:103E8000002B18D1786902F003FA7B6817221A70A8
:103E9000264BDA6D7B685A60254BDA6D7B689A6039
:103EA0007B68244ADA607B6840F247521A617B687B
:103EB000214A5A6137E0FB689B695A1EFB689A6188
:103EC000786902F0E5F9FB681B7803F00203002B28
:103ED00005D0FB689B68043BBA68134400E0BB68EC
:103EE0003B6102F0C5F97861FB681A693B691A60A9
:103EF000FB68BA681A61786902F0CAF97B68002227
:103F00001A700A4B1A687B685A60094B1A687B68FA
:103F10009A607B68074ADA607B6840F257521A6100
:103F20007B68054A5A611837BD4680BD2C61010087
:103F300078630100983C0100EC3C010080B588B03A
:103F400002AFF860B9607A603B607B68002B15D1E6
:103F5000BB6A08221A70374B1A6ABB6A5A60364B22
:103F60001A6ABB6A9A60BB6A344ADA60BB6A4FF469
:103F7000D9621A61BB6A324A5A61FEE73B68002B7C
:103F800005D03B685A1E3B681340002B02D03B68AB
:103F9000002B01D1012300E00023002B15D1BB6AC7
:103FA00008221A70234B1A6ABB6A5A60224B1A6A9B
:103FB000BB6A9A60BB6A214ADA60BB6A40F2CC6293
:103FC0001A61BB6A1E4A5A61FEE702F051F9786134
:103FD000BB6A01937B6A00933B6A3A687968B86868
:103FE00000F030F83861BB6A1B78002B19D0786973
:103FF00002F04EF9BB6A16221A700E4B9A6DBB6A1C
:104000005A600D4B9A6DBB6A9A60BB6A0B4ADA60C4
:10401000BB6A40F2D7621A61BB6A094A5A6100233F
:1040200003E0786902F034F93B6918461837BD4659
:1040300080BD00BF2C61010078630100983C010045
:10404000003D010080B48BB000AFF860B9607A60C9
:104050003B607B68002B01D07B6800E004233A685A
:10406000934238BF13467B62FB689B681A467B6AA3
:104070005B421A40FB689B6819467B6A013B0B4018
:10408000002B01D07B6A00E0002313443B623A6AB4
:10409000BB681A443B685B421A40396ABB681944E2
:1040A0003B68013B0B40002B01D03B6800E0002344
:1040B0001344FB61FB685B681A46FB689B68D31A74
:1040C0000133BB61FB689B681A46FB699B1A7B61E5
:1040D000BA697B699A421ED23B6B002B04D07A6985
:1040E000BB69D21A3B6B1A607B6B16221A70194B94
:1040F0009A6D7B6B5A60184B9A6D7B6B9A607B6BE9
:10410000164ADA607B6B40F222721A617B6B144AAA
:104110005A61002318E0FA69FB689A607B6B002201
:104120001A700C4B1A687B6B5A600B4B1A687B6BCE
:104130009A607B6B094ADA607B6B4FF4E5621A6127
:104140007B6B074A5A613B6A18462C37BD465DF8BF
:10415000047B70472C61010078630100983C0100EA
:10416000183D010090B593B004AFF860B9607A6073
:104170003B603B68002B15D17B6D08221A70924B77
:104180001A6A7B6D5A60914B1A6A7B6D9A607B6DDF
:104190008F4ADA607B6D40F293721A617B6D8D4AB3
:1041A0005A61FEE73B6DB3F1FF3F03D0FA6C3B6D04
:1041B0009A4201D8012300E00023002B15D17B6D2A
:1041C00008221A70804B1A6A7B6D5A607F4B1A6AFC
:1041D0007B6D9A607B6D7E4ADA607B6D40F29772F0
:1041E0001A617B6D7B4A5A61FEE7BB6C002B08D0DD
:1041F000BB6C5A1EBB6C1340002B02D1BB6C032B53
:1042000002D8BB6C002B01D1012300E00023002B5E
:1042100015D17B6D08221A706B4B1A6A7B6D5A6040
:104220006A4B1A6A7B6D9A607B6D694ADA607B6DB6
:1042300040F29C721A617B6D664A5A61FEE7BB6C64
:10424000002B01D0BB6C00E00423FB61BB681B7832
:1042500003F00203002B10D03B6823F003033A68FD
:1042600002F00302002A01D1002200E004221344DC
:104270003B633B6B04333B6304E03B68042B38BF78
:1042800004233B63FB6C002B00F0DF80BB681B78D2
:1042900003F00103002B02D1FB69BB6206E07B68DF
:1042A0001B69FA69934238BF1346BB62BB6A5A4224
:1042B0003B6B1A40BB6A591E3B6B0B40002B01D075
:1042C000BB6A00E000231344BB61BB69FA6C02FBCC
:1042D00003F37B623A6BBB69D31A7A6A13447B623D
:1042E000BB681B7803F00103002B11D07B681B69AE
:1042F0005A427B6A1A407B681B69591E7B6A0B40D5
:10430000002B02D07B681B6900E0002313447B6212
:104310007B6D02930023019301230093BB6A7A6AA9
:104320007968F868FFF70AFE78637B6D1B78002BCD
:1043300040F0B380BB687A6B1A61BB681B7803F0EE
:104340000203002B02D17B6B3B620EE03B6823F043
:1043500003033A6802F00302002A01D1002200E0C0
:10436000042213447A6B13443B620123FB623EE058
:104370003B6A796BBA690A441A60BB68DB69002B37
:104380002AD0BB68DC69BB681B6A7A6B7968B8683D
:10439000A0470346BB75BB7D012B1DD07B6D1A2248
:1043A0001A70094B9A6E7B6D5A60084B9A6E7B6D42
:1043B0009A607B6D064ADA607B6D40F2D9721A61B1
:1043C0007B6D044A5A6169E02C6101007863010049
:1043D000983C0100303D01003A6ABB6913443B62DE
:1043E0007A6BBB6913447B63FB6A0133FB62FA6A35
:1043F000FB6C9A42BCD33B6A00221A60BB68DB6943
:10440000002B25D0BB68DC69BB681B6A7A6B7968B6
:10441000B868A0470346FB75FB7D012B18D07B6D68
:104420001A221A701F4B9A6E7B6D5A601E4B9A6E41
:104430007B6D9A607B6D1D4ADA607B6D40F2E9729C
:104440001A617B6D1A4A5A6128E0BB6800221A6122
:10445000BB687A685A60BB683A6B9A60BB68FA6955
:10446000DA60BB683A6D5A61BB6800229A617B6D65
:1044700000221A700B4B1A687B6D5A600A4B1A683F
:104480007B6D9A607B6D094ADA607B6D40F2FC724D
:104490001A617B6D064A5A6100E000BF3C37BD4699
:1044A00090BD00BF2C61010078630100983C0100C1
:1044B000303D010090B589B004AF78607B68002B77
:1044C00001D100F0A1F87B6800221A70424B1A68F3
:1044D0007B685A60414B1A687B689A607B68404AE7
:1044E000DA607B68C4221A617B683E4A5A613E4B9F
:1044F0005B68002B6DD000210220FFF7ADF803466A
:10450000FB7300210320FFF7A7F803461A46FB7B45
:104510001340FB7300210420FFF79EF803461A4660
:10452000FB7B1340FB73FB7B012B14D07B680622C3
:104530001A70294B9A697B685A60284B9A697B6884
:104540009A607B68264ADA607B68CA221A617B68B7
:10455000244A5A61FEE7FFF773F8B8607B682C22A3
:10456000B9682248FFF7DAFA0246214B1A607B68E5
:104570001B78002B28D11E4B1B68181D1A4B1B687B
:10458000194A5268796803910292019304230093B7
:104590000823BA6801461748FFF7E8FA7B681B78DA
:1045A000002B13D1124B1C687A6800211248FFF7C8
:1045B000CDF8A0627B681B78002B09D10C4B1B68DF
:1045C0001846FEF7F7FF04E000BF02E000BF00E07E
:1045D00000BF1437BD4690BD2C6101007863010017
:1045E0004C3D0100CC3D0100440000207C3D010019
:1045F00094580020903D0100A83D010080B500AF17
:1046000000F064F800BF80BD80B400AFFEE780B565
:1046100082B000AFFBF722FE78607B68184608374F
:10462000BD4680BD80B584B000AF78607B68002B4C
:1046300001D1FFF7E9FF184B1B68FB60FB68002BFB
:1046400001D0002200E009227B681A70FB68002B71
:1046500001D0002300E00923104A52F823207B6890
:104660005A60FB68002B01D0002300E009230C4AAC
:1046700052F823207B689A607B680A4ADA607B687C
:104680004FF4F9721A617B68074A5A61FB68184651
:104690001037BD4680BD00BF44B200202C61010030
:1046A00078630100C4650100E065010080B483B057
:1046B00000AF7860044A7B68136000BF0C37BD46CA
:1046C0005DF8047B704700BF44B2002080B500AFA6
:1046D000034B00221A60FBF79FFD00BF80BD00BFA7
:1046E00044B2002080B487B000AFF860B9607A604F
:1046F000FB6803F10473DA00BB6813449B007B6121
:104700007B697A681A6000BF1C37BD465DF8047B80
:10471000704780B485B000AF786039607B6803F182
:10472000C063FB60FB683A681A6000BF1437BD467F
:104730005DF8047B704780B485B000AF7860396065
:104740007B6803F18063FB60FB683A681A6000BF16
:104750001437BD465DF8047B704780B584B000AF68
:10476000F860B9607A60B968F868FFF7E4FF7968C3
:10477000F868FFF7CEFF00BF1037BD4680BD0000D0
:1047800080B582B000AF786039607B68B3F1804F4C
:1047900007D07B68274A934203D0A721264800F020
:1047A000AFF83B681B693F2B03D9BB21224800F0BF
:1047B000A7F83B68DB683F2B03D9BC211E4800F0FB
:1047C0009FF83B685B683F2B03D9BE211A4800F075
:1047D00097F83B681B78DB071A463B685B681B064B
:1047E000134343F400427B681A603B68DB681B0498
:1047F0003A68127A1A437B689A623B681B691B0409
:104800003A68527A1A437B68DA623B689B7A1B07E4
:1048100043F0806343F47D437A68536078683B6873
:104820001B7D1A460021FFF75DFF00BF0837BD461C
:1048300080BD00BF00040040F465010080B582B077
:1048400000AF78600B46FB707B68B3F1804F07D0F8
:104850007B68094A934203D0FA21084800F050F8D7
:104860007B680433FA78FF211846FFF776FF00BF14
:104870000837BD4680BD00BF00040040F46501005C
:1048800080B582B000AF78607B68B3F1804F08D00C
:104890007B68094A934204D04FF49071074800F0B6
:1048A0002FF87B681B6823F001027B681A6000BF49
:1048B0000837BD4680BD00BF00040040F46501001C
:1048C00080B582B000AF78607B68B3F1804F08D0CC
:1048D0007B68094A934204D04FF49B71074800F06B
:1048E0000FF87B681B6843F001027B681A6000BF09
:1048F0000837BD4680BD00BF00040040F4650100DC
:1049000080B483B000AF78603960FEE780B487B0D0
:1049100000AFF860B9607A60FB6803F10473DA00F5
:10492000BB6813449B007B617B697A681A6000BF97
:104930001C37BD465DF8047B704780B485B000AF7E
:10494000786039607B6803F10473DA003B681344D4
:104950009B00FB60FB681B6818461437BD465DF87A
:10496000047B704780B582B000AF78607B681F2BF6
:1049700004D94FF496710548FFF7C2FF01227B6806
:1049800002FA03F318460837BD4680BD08660100E9
:1049900080B584B000AF78607B68002B03D07B6863
:1049A000B3F5004F04D940F6C2210748FFF7A8FF2E
:1049B0007B68B3FA83F3DBB2C3F11F03FB60FB68D0
:1049C00018461037BD4680BD7066010080B584B0C2
:1049D00000AF78607B68B3F5004F04D340F6AF3189
:1049E0000E48FFF78DFF7B680133B3FA83F3DBB228
:1049F000C3F11F03FB60F868FFF7B4FF0346013BF8
:104A00007A689A4204D040F6B5310448FFF778FF3F
:104A1000FB6818461037BD4680BD00BF70660100B8
:104A200080B400AF064B1B6803F04003002B01D19C
:104A3000012300E000231846BD465DF8047B704763
:104A40003C300E4080B500AFFFF7EAFF034683F02D
:104A50000103DBB2002B08D100BF12210448FFF78D
:104A60006CFF0346002BF8D100E000BF80BD00BF03
:104A700004300E4080B500AFFFF7E4FF034B5B68E6
:104A80001B0C03F00303DBB2184680BD00300E4060
:104A900080B584B000AF78600123FB607B68124A68
:104AA000934204D80023FB600023BB6008E07B68CE
:104AB0000E4A934202D80123BB6001E00223BB608F
:104AC000FA6810210A48FFF721FF094BD3F800319B
:104AD00023F08072BB681B0605491343C1F80031FF
:104AE00000BF1037BD4680BD0048E8010090D003EC
:104AF00000400E4080B483B000AF054B1B687B6064
:104B00007B6818460C37BD465DF8047B704700BFD4
:104B10004C00002080B582B000AFFBF7A1FC7860AC
:104B2000064BD3F800311B0A03F01F0301337A68E8
:104B300002FB03F318460837BD4680BD00400E4017
:104B400080B582B000AF0F4800F00CFE0346FB704A
:104B5000FB78072B05D0092B07D1FBF781FC786088
:104B60000BE0FFF7C7FF786007E000237B6040F6AB
:104B70005C510548FFF7C4FE00BF7B681846083744
:104B8000BD4680BD06000E00D466010080B584B02D
:104B900000AF78607B68002B1CD1204800F0E2FD5C
:104BA0000346FB7200BFFB7A013B072B28D801A20A
:104BB00052F823F0E34B0000014C0000014C0000D0
:104BC000F14B0000014C0000014C0000E94B0000DB
:104BD000F94B000040F67C511148FFF791FE00238D
:104BE00017E00023FB6013E0FFF784FFF8600FE09D
:104BF000FBF77AFCF8600BE0FFF78CFFF86007E04A
:104C00000023FB6040F693510548FFF779FE00BF93
:104C1000FB6818461037BD4680BD00BFB8003200A3
:104C2000D466010080B584B000AF78603960204B55
:104C30005B6803F04073FB600023BB6012E01D4A19
:104C4000BB68DB0013441A793B68DBB29A4206D199
:104C5000184ABB6852F833307A689A4206D9BB6862
:104C60000133BB60BB68042BE9D900E000BFBB681F
:104C7000052B07D10323FB6040F69A610E48FFF72E
:104C80003FFE05E00B4ABB68DB0013445B79FB6029
:104C9000FB681B06FB60064B5B6823F0407204490F
:104CA000FB6813434B6000BF1037BD4680BD00BF9B
:104CB00000000E40E8660100D466010080B582B0B5
:104CC00000AF0E4B1B6C002B14BF01230023FB71A4
:104CD0000A4B41F671321A64FBF7B8FB0346002118
:104CE0001846FFF79FFFFB79002B02D0034B0022F1
:104CF0001A6400BF0837BD4680BD00BF00000E40EB
:104D000080B584B000AF786039600C4B1B6C002B11
:104D100014BF01230023FB73084B41F671321A6460
:104D200039687868FFF77EFFFB7B002B02D0034BCE
:104D300000221A6400BF1037BD4680BD00000E403F
:104D400080B487B000AF78600F237B617B6803334A
:104D50003B617B69FB60FA683B69934228BF13465D
:104D6000BB60BB681B07BB60BB6818461C37BD46F1
:104D70005DF8047B7047000080B400AF044B5B6AB1
:104D80001B0903F003031846BD465DF8047B70471A
:104D900000400E4080B483B000AF7860074B5B6A80
:104DA00023F030027B681B01044913434B6200BFB0
:104DB0000C37BD465DF8047B704700BF00400E40D5
:104DC00090B585B000AF78600023BB607B683C4A3B
:104DD00093420BD03B4A934208D03B4A934205D0C2
:104DE00040F69A713948FFF78BFD00E000BF786804
:104DF00000F0B8FC0346FB607B68314A93420CD05C
:104E0000304A934210D0304A934214D1304BD3F8F9
:104E1000803003F00703FB6013E02D4BD3F88430A0
:104E200003F00703FB600CE0294BD3F8883003F054
:104E30000703FB6005E040F6C9712448FFF760FDF9
:104E400000BFFB68042B2ED801A252F823F000BF4C
:104E5000A14E0000654E00006D4E00007D4E00002A
:104E6000754E0000FBF762FBB86024E0FBF770FBB7
:104E7000B86020E0FBF763FBB8601CE0FBF7F0FADA
:104E80000446134BD3F800311B0E03F0010301332A
:104E90001846FFF767FD0346B4FBF3F3BB600AE077
:104EA0000023BB6007E00023BB6041F21B01074801
:104EB000FFF726FD00BFBB6818461437BD4690BDFE
:104EC000030020000500240002001E00D46601003B
:104ED00000400E4080B483B000AF78600A4BD3F836
:104EE000443103F00103002B08D100BF064BD3F877
:104EF00040217B681340002BF8D100E000BF0C3745
:104F0000BD465DF8047B704700400E4080B400AFA2
:104F100000BFBD465DF8047B704780B400AF00BFA2
:104F2000BD465DF8047B704780B582B000AF786005
:104F3000786800F0A1F90346013318460837BD46EA
:104F400080BD80B582B000AF786039603B68013BBE
:104F50001946786800F070FA00BF0837BD4680BD7A
:104F600080B586B000AF78600B46FB7000233B61D4
:104F70007B681B0A03F00F03013B092B32D801A207
:104F800052F823F0AD4F0000B94F0000E54F00008C
:104F9000E54F0000B34F0000BF4F0000C94F0000B5
:104FA000E54F0000D34F0000DF4F00001A4B7B613C
:104FB0001EE01A4B7B611BE0194B7B6118E0194B1B
:104FC0007B6101233B6113E0174B7B6110233B6145
:104FD0000EE0164B7B614FF480333B6108E0144BCD
:104FE0007B6105E041F239411248FFF789FC10E08E
:104FF0007B681B0B03F01F03FB603B69002B02D097
:105000003869FFF767FFFB781A46F9687869FFF798
:105010007DFC1837BD4680BD00400E40B0400E40BC
:10502000C0400E40E0400E40E8400E40F0400E40D0
:1050300050410E40D466010090B585B000AF786055
:105040007B6803F47813B3F5B01F00F09480B3F5D8
:10505000B01F21D8B3F5202F58D0B3F5202F08D892
:10506000B3F5003F56D0B3F5802F40D0002B3AD097
:10507000EBE0B3F5602F00F0D080B3F5602F03D8DC
:10508000B3F5402F55D0E0E0B3F5801F00F0C980A4
:10509000B3F5A01F61D0D8E0B3F5101F00F0B880C1
:1050A000B3F5101F0BD8B3F5F01F51D0B3F5001FA7
:1050B00000F08280B3F5D01F00F08380C5E0B3F527
:1050C000401F00F09180B3F5401F03D8B3F5381F9F
:1050D00063D0BAE0B3F5481F00F0A780B3F5781F9E
:1050E00000F0A880B1E0FBF7BBF9F860B5E0FBF792
:1050F000B7F9F8605B4BD3F80C311B0AC3F3080314
:105100000133FA68B2FBF3F3FB60A6E0FBF7A8F902
:10511000F860A2E0FBF7A4F9F860524BD3F808312D
:105120001B0AC3F308030133FA68B2FBF3F3FB6015
:1051300093E0FBF795F9F8604A4BD3F814311B0A5A
:1051400003F01F030133FA68B2FBF3F3FB6084E062
:105150004548FFF735FEF8607FE04448FFF730FE32
:10516000F860404BD3F8303103F00303FA6822FAB9
:1051700003F3FB6071E03C48FFF722FEF860394B17
:10518000D3F8203103F00F031846FFF7EBFB02467C
:10519000FB68B3FBF2F3FB605FE03348FFF710FE00
:1051A000F860304BD3F820311B0903F00303FA6891
:1051B00022FA03F3FB6050E02D48FFF701FEF86090
:1051C0004BE02B48FFF7FCFDF860264BD3F8283165
:1051D0001B0903F003031846FFF7C4FB0246FB68F4
:1051E000B3FBF2F3FB6038E02148FFF7E9FDF8601C
:1051F0001C4BD3F828311B0A03F003030433184671
:10520000FFF7B0FB0246FB68B3FBF2F3FB6024E060
:105210001648FFF7D5FDF8601FE0FFF791FCF86036
:105220001BE0FFF767FCF86017E00020FFF7AEFC1B
:10523000F86012E0FBF714F904467868FFF774FE93
:105240000346B4FBF3F3FB6007E00023FB6041F28D
:1052500069510848FFF754FB00BFFB681846143734
:10526000BD4690BD00400E4002001E000500240017
:1052700003002000D466010080B584B000AF7860E0
:105280007B681B0903F00F03BB60BB68013B092B64
:1052900000F2B78001A252F823F000BFC55200000F
:1052A000D5520000E55200000553000003540000F1
:1052B0000354000015530000255300007D530000E7
:1052C000DB530000554BD3F800311B0A03F01F03DA
:1052D000FB609EE0514BD3F814311B0A03F01F030F
:1052E000FB6096E04D4BD3F800311B0E03F0010339
:1052F000FB60FB6801331846FFF734FB0346013BB4
:10530000FB6086E0454BD3F80C311B0AC3F308035E
:10531000FB607EE0414BD3F808311B0AC3F308035E
:10532000FB6076E07B683E4A934203D03D4A93425D
:105330000DD01AE0394BD3F8203103F00F03FB6096
:10534000F868FFF70FFB0346013BFB6015E0334BAA
:10535000D3F820311B0903F00303FB60F868FFF763
:1053600001FB0346013BFB6007E00023FB6041F2C9
:10537000DD512D48FFF7C4FA00BF4AE07B682B4A95
:10538000934203D02A4A93420ED01DE0234BD3F818
:1053900028311B0903F00303FB60F868FFF7E2FA0A
:1053A0000346013BFB6017E01C4BD3F828311B0A76
:1053B00003F00303FB60FB6804331846FFF7D2FADF
:1053C0000346013BFB6007E00023FB6041F2016103
:1053D0001548FFF795FA00BF1BE07B68154A93421A
:1053E00006D10E4BD3F8303103F00303FB6007E026
:1053F0000023FB6041F210610B48FFF781FA00BF08
:1054000007E00023FB6041F235610748FFF778FAB7
:1054100000BFFB6818461037BD4680BD00400E40F7
:105420008006160080162E00D466010090171A0020
:1054300090273000A009140080B584B000AF7860D8
:1054400039607B681B0903F00F03FB60FB68013BBD
:10545000092B00F26C8101A252F823F08554000060
:10546000DF54000007550000275500002F570000AB
:105470002F570000555500009B550000575600005F
:10548000EB5600003B681F2B04D941F25D61AD482B
:10549000FFF736FAFFF712FCAB48FFF7F9FAFFF710
:1054A00035FDAA4BD3F8003123F4F8523B681B02B8
:1054B000A6491343C1F80031FAF7A8FFB860FFF717
:1054C000D9FA03461946B868FFF71AFCFAF7C8FF7D
:1054D00003461846FFF7DCFAFFF71FFD2DE13B6896
:1054E0001F2B04D941F273619648FFF709FA974BD5
:1054F000D3F8143123F4F8523B681B029349134349
:10550000C1F8143119E13868FFF742FA38608F4B5F
:10551000D3F8003123F080723B681B068B4913439C
:10552000C1F8003109E13B68B3F5007F04D34FF4C3
:10553000B4518448FFF7E4F9844BD3F80C3123F4D9
:10554000FF3323F480733A68120280491343C1F891
:105550000C31F2E03B68B3F5007F04D341F2966171
:105560007848FFF7CDF9FFF7A9FB784BD3F808315E
:1055700023F4FF3323F480733A6812027349134310
:10558000C1F80831FAF742FFB860FFF773FA034633
:105590001946B868FFF7B4FBCFE07B686C4A9342CA
:1055A0001CD06C4A934234D06B4A93424CD13B6836
:1055B000022B04D941F2B9616248FFF7A1F94FF417
:1055C0008020FFF787FC614BD3F8303123F00302D2
:1055D0005E493B681343C1F830313BE03B68B3F5AB
:1055E000004F04D941F2D6615648FFF789F938686F
:1055F000FFF7ECF938600420FFF76CFC534BD3F84D
:10560000203123F00F0251493B681343C1F8203188
:1056100020E03B68082B04D941F2F4614948FFF7C8
:105620006FF93868FFF7D2F938600420FFF752FCB1
:10563000464BD3F8203123F030023B681B0143492D
:105640001343C1F8203105E041F212713D48FFF7E4
:1056500057F900BF71E07B68404A934203D0404A4B
:1056600093421BD03AE03B68082B04D941F21B71EE
:105670003448FFF745F93868FFF7A8F9386040204B
:10568000FFF728FC314BD3F8283123F030023B6878
:105690001B012E491343C1F8283125E03B687F2BBD
:1056A00002D83B680E2B04D841F239712548FFF728
:1056B00027F93868FFF78AF90346043B3B6040202E
:1056C000FFF708FC214BD3F8283123F440723B68E4
:1056D0001B021E491343C1F8283105E041F248710D
:1056E0001848FFF70DF900BF27E07B681A4A93427C
:1056F00016D13B68022B04D941F252711148FFF7D1
:10570000FFF84FF48020FFF7E5FB104BD3F8303162
:1057100023F003020D493B681343C1F8303105E023
:1057200041F262710748FFF7EBF800BF05E041F274
:105730008A710448FFF7E4F800BF00BF1037BD4688
:1057400080BD00BFD46601000148E80100400E4062
:105750008006160080162E00A009140090171A006B
:105760009027300080B584B000AF78600123FB73D0
:105770007B6803F00F03BB60BB68013B072B00F2A3
:10578000C48001A252F823F0A9570000FF5700007F
:105790002F5800000B59000075580000A558000054
:1057A0000B590000C95800005E4BD3F8943003F049
:1057B0000703023B052B1ED801A252F823F000BFBD
:1057C000E5570000DF570000D9570000EB570000F5
:1057D000F7570000F15700000223FB730EE003238C
:1057E000FB730BE00423FB7308E00B23FB7305E062
:1057F0000C23FB7302E00523FB7300BF8DE0494BD4
:10580000D3F8803003F00703022B06D0042B07D017
:10581000012B08D10323FB7308E00223FB7305E08F
:105820000A23FB7302E00123FB7300BF75E03D4BCD
:10583000D3F8843003F00703013B032B16D801A2F1
:1058400052F823F0555800005B58000067580000DC
:10585000615800000323FB730BE00223FB7308E095
:105860000A23FB7305E00623FB7302E00123FB73AD
:1058700000BF52E02B4BD3F8883003F00703022B14
:1058800006D0042B07D0012B08D10323FB7308E0BB
:105890000223FB7305E00A23FB7302E00123FB7381
:1058A00000BF3AE01F4B1B6F03F00103002B04D035
:1058B000012B05D10923FB7305E00723FB7302E0ED
:1058C0000123FB7300BF28E0164BD3F85C3103F0D3
:1058D0003003102B0CD0102B02D8002B05D010E079
:1058E000202B08D0302B09D00BE00123FB730BE0F9
:1058F0000723FB7308E00423FB7305E00823FB7315
:1059000002E00123FB7300BF07E00023FB7341F6B5
:1059100089110548FEF7F4FF00BFFB7B18461037DE
:10592000BD4680BD00400E40D466010080B58AB0FF
:1059300000AF78600B46FB7003237B62032387F87C
:1059400023300023BB6100237B617B68112B19D1BD
:10595000FB78042B03D1FAF7C7FD78610BE0FB78E5
:10596000052B08D100F086F90246BA4B9A4202D9BB
:1059700000F080F978617B69002B03D00021786901
:1059800000F052FD7B6803F00F033B613B69013B74
:10599000072B00F2558101A252F823F0BD590000F7
:1059A000C75A0000F95A0000415C0000DB5A0000B1
:1059B000995B0000415C0000C35B0000FB78023B88
:1059C0000A2B49D801A252F823F000BFF959000070
:1059D000055A0000115A0000235A0000595A0000CD
:1059E000595A0000595A0000595A00004D5A0000F7
:1059F000355A0000415A000004237B62002387F8D7
:105A000023302FE003237B62012387F8233029E032
:105A100002237B62022387F823308F48FFF738F890
:105A200020E001237B62032387F823308A48FFF7B5
:105A30002FF817E005237B62032387F8233011E05A
:105A400007237B62062387F823300BE041F64A21C7
:105A50008248FEF755FFF9E041F64F217F48FEF7F7
:105A60004FFFF3E097F82330062B06D097F823304A
:105A700001220121184600F08BF9FFF71FF9FFF70B
:105A800045FA7B69002B01D0FEF7DCFF744A7B6A84
:105A90005367FAF7BBFCF860FAF7E2FC03461846D6
:105AA000FEF7F6FFFEF7E6FF03461946F868FFF734
:105AB00027F97B69002B03D10121002000F0B4FC01
:105AC000FFF72BFAC2E0674BBB61FB78062B04D1D2
:105AD00041F68E216148FEF713FFBB69002B01D010
